:020000040800F2
:1000000060070020990D0008390200083B02000833
:100010003F020008430200084702000800000000F9
:100020000000000000000000000000004B0200087B
:100030004D020008000000004F02000851020008B5
:10004000B30D0008B30D0008B30D0008B30D000890
:10005000B30D0008B30D0008B30D0008B30D000880
:10006000B30D0008B30D0008B30D0008B30D000870
:10007000B30D0008B30D0008B30D0008B30D000860
:10008000B30D0008B30D0008B30D0008B30D000850
:10009000B30D0008B30D0008B30D0008B30D000840
:1000A000B30D0008B30D0008B30D0008B30D000830
:1000B000B30D0008B30D0008B30D0008B30D000820
:1000C000B30D0008B30D0008B30D0008B30D000810
:1000D000B30D00080F0D0008B30D0008B30D0008A4
:1000E000B30D0008B30D0008B30D0008B30D0008F0
:1000F000B30D0008B30D0008B30D0008B30D0008E0
:10010000B30D0008B30D0008B30D0008B30D0008CF
:10011000B30D0008B30D0008B30D0008B30D0008BF
:10012000B30D0008B30D0008B30D0008B30D0008AF
:1001300000F002F800F042F80AA090E8000C8244B7
:100140008344AAF10107DA4501D100F037F8AFF294
:10015000090EBAE80F0013F0010F18BFFB1A43F0A5
:10016000010318479C240000BC240000103A24BF5F
:1001700078C878C1FAD8520724BF30C830C144BF0C
:1001800004680C607047000000230024002500264E
:10019000103A28BF78C1FBD8520728BF30C148BFEA
:1001A0000B607047642901F03F84782901F078845E
:1001B000002070471FB51FBD10B510BD01F0C4FD74
:1001C0001146FFF7F7FF00F009F801F0E2FD03B474
:1001D000FFF7F2FF03BC00F03FFD00001CB500205C
:1001E0000090019000F0CEFC4FF4A06000F0F4FD10
:1001F0004FF4E13000F03FFD00F000F900F084FA28
:1002000000F034F910E06946D02000F0D1F97521F2
:10021000D02000F0B3FB0446214604A001F0D0FB3F
:100220004FF4FA6000F0EBFCEDE7000064617461EC
:100230003A2532580D0A0000704700BFFEE700BFA4
:10024000FEE700BFFEE700BFFEE77047704770475C
:10025000704700000CB50020019000905E480068D7
:1002600040F480305C49086000BF5B48006800F4DF
:10027000003000900198401C0190009818B9019836
:10028000B0F5A06FF1D15448006800F4003010B10F
:100290000120009001E0002000900098012828D162
:1002A0004E48006840F010004C490860084600685D
:1002B00020F003000860084600680860464840686F
:1002C00045494860084640684860084640684860BC
:1002D0000846406820F0030048600846406840F047
:1002E0000100486000BF3C48406800F00C00042852
:1002F000F9D10CBD10B5FFF7ADFF10BD10B53648F4
:10030000006840F0010034490860084640683449FC
:1003100008403149486008460068324908402E4983
:1003200008600846006820F480200860084640689D
:1003300020F4FE0048604FF41F008860FFF7DAFFEA
:100340004FF000602849086010BD10B50021002062
:100350000022214B5B6803F00C0121B1042906D077
:10036000082928D107E0214B214C236027E01F4BAF
:100370001F4C236023E0184B5B6803F47010164B8E
:100380005B6803F48032022303EB904022B9194BDF
:100390004343174C23600DE00F4B5B6803F40033BD
:1003A00023B1144B4343124C236003E00F4B4343F0
:1003B0000F4C236003E00D4B0D4C236000BF00BFCA
:1003C000054B5B68C3F303130B4CE15C084B1B68E4
:1003D000CB40074C236010BD0010024000200240BB
:1003E0000000FFF8FFFFF6FE08ED00E000127A00C3
:1003F0000000002000093D000400002008B5012194
:100400000C2001F073F84FF41060ADF800001020DC
:100410008DF8030003208DF802006946114800F0B2
:10042000A9FD4FF480710F4800F053FE4FF40061B6
:100430000C4800F04EFE0A20ADF8000010208DF8A8
:10044000030003208DF802006946074800F092FD82
:100450000221054800F03DFE0821034800F039FE66
:1004600008BD000000080140000C014010B58022CA
:100470006B21D02000F06AFA642000F0C0FB00225B
:100480006B21D02000F062FA18221B21D02000F04E
:100490005DFA00221C21D02000F058FA1322192105
:1004A000D02000F053FA00223821D02000F04EFA7C
:1004B00000226A21D02000F049FA01226B21D020CD
:1004C00000F044FA00222321D02000F03FFA8022DD
:1004D0003721D02000F03AFA03226B21D02000F01F
:1004E00035FA00226C21D02000F030FA10BD70B532
:1004F0000446002500F01BF9204600F0F6F900F054
:1005000058F930B163A001F05BFA00F030F92846E9
:1005100070BD752000F0E9F900F04BF938B1752194
:1005200062A001F04DFA00F022F92846F0E700F051
:10053000FEF8611CC8B200F0D8F900F03AF930B109
:1005400061A001F03DFA00F012F92846E0E7002032
:1005500000F09CF9054600F00AF92846D8E72DE995
:10056000FC5F0020019082468346022301AA4121BC
:10057000D02000F03CFA9DF804A09DF8050040EA68
:100580000A2A504601F0B4FF009001F085FF804632
:100590000022524B01F0EAFC0646514A514B01F051
:1005A0003DFC044601F008FC83465846BDE8FC9F2C
:1005B00030B585B005460C464B4903C9CDE903016A
:1005C000062303AA3B21284600F011FAA0B19DF8AA
:1005D0000D009DF80C1040EA012020809DF80F00CE
:1005E0009DF80E1040EA012060809DF811009DF8F2
:1005F000101040EA0120A0809DF811009DF8101015
:100600009DF80F20CDE9002102909DF80E309DF855
:100610000D209DF80C1035A001F0D2F905B030BDC9
:1006200030B585B005460C462F49083103C9CDE9E0
:100630000301062303AA4321284600F0D8F906281F
:1006400014D19DF80D009DF80C1040EA0120208087
:100650009DF80F009DF80E1040EA012060809DF883
:1006600011009DF8101040EA0120A0809DF81100B3
:100670009DF810109DF80F20CDE9002102909DF803
:100680000E309DF80D209DF80C1018A001F098F97F
:1006900005B030BD0D0A204E4F2041434B20666F00
:1006A0007220416464726573730D0A000D0A204E56
:1006B0004F2041434B205265676973746572202552
:1006C0003032580D0A0000000D0A204E4F204143E1
:1006D0004B2044617461200D0A0000000040754009
:1006E000A4703D0AD7434240B82500086461746194
:1006F0003A25642025642025642025642025642073
:1007000025640D0A0000000008B50121082000F052
:10071000EDFEC020ADF8000010208DF80300012090
:100720008DF802006946F84800F024FC08BD10B5B9
:10073000F548006820F07040F349086008460068FA
:1007400040F0405008600120F0490860F049C1F8CD
:100750009801022000F02FFA0020EC4908600220E6
:1007600000F029FA0020EA49C1F8980110BD10B53F
:10077000E548006820F07040E349086008460068DA
:1007800040F0405008600120E049091F0860002047
:10079000DF49C1F89C01022000F00DFA0120DB497D
:1007A000091F0860DA49C1F89C01022000F003FA31
:1007B00010BD10B50024D448006820F07040D24924
:1007C00008600846006840F0004008600120CF49FA
:1007D0000860022000F0EFF90120CD49C1F898012E
:1007E000022000F0E8F90AE0601CC4B2322C03DDFC
:1007F000FFF7BDFF012010BD022000F0DCF9C34867
:10080000803800680028EFD1C049091F086000BF88
:10081000F1E710B5BC48006820F07040BA490860A4
:100820000846006840F0405008600120B749091FA1
:1008300008600020B649C1F89C01022000F0BBF915
:100840000020B249091F0860022000F0B4F910BD71
:1008500010B5AD48006820F07040AB49086008460C
:10086000006840F0405008600120A849091F086056
:10087000A749C1F89C01022000F09DF90020A3497E
:10088000091F0860022000F096F910BD70B50646F9
:10089000002400259C48006820F070409A490860B8
:1008A0000846006840F00040086000BF17E00020E4
:1008B0009649091F0860022000F07DF90120944943
:1008C000C1F898016006040E90488038006808B1AD
:1008D000601CC4B2022000F06EF9681CC5B2082D7D
:1008E000E5DBFFF796FF204670BD70B504468648ED
:1008F000006820F07040844908600846006840F0B5
:100900004050086000208149091F0860022000F063
:1009100052F9002517E0E0097C4908606006040EE2
:10092000022000F048F901207949C1F8980102201D
:1009300000F041F900207549091F0860022000F00D
:100940003AF9681CC5B2082DE5DB70BD70B50646E6
:100950000C461546FFF7EBFE3046FFF7C6FFFFF7E4
:1009600028FF2046FFF7C1FFFFF723FF2846FFF7C8
:10097000BCFFFFF71EFFFFF7FAFE70BD70B504461F
:100980000D460026FFF7D3FE2046FFF7AEFFFFF728
:1009900010FF30B15FA001F013F8FFF7E8FE30461A
:1009A00070BD2846FFF7A1FFFFF703FF38B12946C6
:1009B0005EA001F005F8FFF7DAFE3046F0E7FFF73A
:1009C000B6FE611CC8B2FFF790FFFFF7F2FE30B130
:1009D0005DA000F0F5FFFFF7CAFE3046E0E700201B
:1009E000FFF754FF0646FFF7C2FE3046D8E72DE971
:1009F000F0410746884615461E4600240DB1002EDC
:100A000002DC2046BDE8F081FFF791FE3846FFF793
:100A10006CFFFFF7CEFE30B13EA000F0D1FFFFF734
:100A2000A6FE2046EEE74046FFF75FFFFFF7C1FE58
:100A300038B141463DA000F0C3FFFFF798FE2046C5
:100A4000E0E7FFF774FE791CC8B2FFF74EFFFFF72F
:100A5000B0FE30B13CA000F0B3FFFFF788FE2046A7
:100A6000D0E700240DE0701EA04204D00120FFF763
:100A70000DFF285503E00020FFF708FF2855601CF4
:100A8000C4B2B442EFDBFFF772FE2046BAE72DE9AD
:100A9000F04180460F4614461D4600260CB1002D3D
:100AA00002DC0120BDE8F081FFF741FE4046FFF780
:100AB0001CFFFFF77EFE3846FFF717FFFFF779FEB2
:100AC000002606E0A05DFFF710FFFFF772FE701C26
:100AD000C6B2AE42F6DBFFF74AFE0020E2E72DE9A0
:100AE000F04106460F461446002539463046FFF7CA
:100AF00045FF0546A54325432A4639463046FFF7BC
:100B000025FFBDE8F0810000000C01409C812142DE
:100B1000008021420D0A204E4F2041434B20666F3A
:100B20007220416464726573730D0A000D0A204ED1
:100B30004F2041434B2052656769737465722025CD
:100B40003032580D0A0000000D0A204E4F2041435C
:100B50004B2044617461200D0A0000002DE9F04132
:100B600006460F461446002539463046FFF706FF75
:100B70000546A5432A4639463046FFF7E7FEBDE85D
:100B8000F081000010B56FF0040000F074F92E48F9
:100B900000682E49B0FBF1F02D4908700846007836
:100BA00000EB4001C1EBC0104FF6FF7101EAC0003D
:100BB0002849088010BD0146254A12784A434FF063
:100BC000E0235A6100229A611A46126942F001023A
:100BD0001A6100BF4FF0E022106900F001021AB163
:100BE00000F48032002AF5D04FF0E022126922F0A2
:100BF00001024FF0E0231A6100229A61704701461A
:100C0000144A12884A434FF0E0235A6100229A6145
:100C10001A46126942F001021A6100BF4FF0E02249
:100C2000106900F001021AB100F48032002AF5D0F8
:100C30004FF0E022126922F001024FF0E0231A6126
:100C400000229A61704700000000002000127A0024
:100C50001400002016000020014600BF704700BFAE
:100C6000494A128802F04002002AF9D0C2B2464B2B
:100C70001B1D1A80704710B586B00446012144F24E
:100C8000040000F033FC4FF40070ADF814000320B2
:100C90008DF8160018208DF8170005A93B4800F0C4
:100CA00069F94FF48060ADF8140004208DF8170046
:100CB00005A9364800F05EF925208DF800000320D4
:100CC0008DF801008DF8020001208DF803006846C0
:100CD00000F087F801940020ADF80800ADF80A0094
:100CE000ADF80C00ADF810000C20ADF80E0001A915
:100CF000254800F0A2FC012240F22551224800F0D4
:100D000034FD0121204800F024FD06B010BD10B5CF
:100D100040F225511C4800F00DFE10B31A4800F0B7
:100D200089FDC4B21A48008800F40040C8B91848C8
:100D3000008800F4804060B10A2C03D000201449E0
:100D4000088020E01248008840F4004010490880E4
:100D500019E00D2C06D10E48008840F480400C4963
:100D6000088010E00A480088C0F30D0009490C54BF
:100D700007480088401C0649088008460088C728A4
:100D800001DD0020088010BD00380140000801404E
:100D90001C00002034000020094880470948004713
:100DA000FEE7FEE7FEE7FEE7FEE7FEE7FEE7FEE71B
:100DB000FEE7FEE704480549054A064B7047000078
:100DC000FD020008310100086001002060070020DA
:100DD000600300206003002031490143314A116063
:100DE000704770B5002100230F22C47804B32D4C46
:100DF000246804F4E064C4F5E064210AC1F104034A
:100E0000CA40447804FA03F184781440214309016C
:100E1000254C0678A155047804F01F050124AC4048
:100E200005786D11AD0005F1E025C5F8004109E038
:100E3000047804F01F050124AC401C4D067876119F
:100E400045F8264070BD1A4A0A400243154B1B1F45
:100E50001A60704739B1134A121D12680243114BD0
:100E60001B1D1A6006E00F4A121D126882430D4BCB
:100E70001B1D1A607047042808D14FF0E021096952
:100E800041F004014FF0E022116107E04FF0E02152
:100E9000096921F004014FF0E02211617047000060
:100EA0000000FA050CED00E000E400E080E100E065
:100EB00080FFFF1F10B50446CC48844208D10121B1
:100EC000042000F02DFB0021042000F029FB46E067
:100ED000C748844208D10121082000F021FB0021ED
:100EE000082000F01DFB3AE0C248844208D10121ED
:100EF000102000F015FB0021102000F011FB2EE067
:100F0000BD48844208D10121202000F009FB0021C6
:100F1000202000F005FB22E0B848844208D10121DE
:100F2000402000F0FDFA0021402000F0F9FA16E020
:100F3000B348844208D10121802000F0F1FA002159
:100F4000802000F0EDFA0AE0AE48844207D101218A
:100F5000801500F0E5FA0021A01500F0E1FA10BDBF
:100F600010B50121084600F0DBFA0021012000F055
:100F7000D7FA10BD2DE9F0410246002500260020D9
:100F800000230024002791F803C00CF00F0591F80E
:100F900003C00CF0100CBCF1000F03D091F802C09C
:100FA0004CEA050591F800C0BCF1000F31D014687F
:100FB00000202BE04FF0010C0CFA00F3B1F800C058
:100FC0000CEA03069E4220D183004FF00F0C0CFA6E
:100FD00003F7BC4305FA03FC4CEA040491F803C090
:100FE000BCF1280F06D14FF0010C0CFA00FCC2F83E
:100FF00014C00AE091F803C0BCF1480F05D14FF0CE
:10100000010C0CFA00FCC2F810C0401C0828D1D317
:101010001460B1F800C0BCF1FF0F34DD546800204B
:101020002EE000F1080C4FF0010808FA0CF3B1F8BB
:1010300000C00CEA03069E4221D183004FF00F0C42
:101040000CFA03F7BC4305FA03FC4CEA040491F8DC
:1010500003C0BCF1280F05D100F1080C08FA0CF808
:10106000C2F8148091F803C0BCF1480F07D100F119
:10107000080C4FF0010808FA0CF8C2F81080401C68
:101080000828CED35460BDE8F0814FF6FF7101808F
:10109000022181700421C1707047024600209368CC
:1010A0000B400BB1012000E000207047014688682A
:1010B00080B2704702460020D3680B400BB101207C
:1010C00000E0002070470146C86880B270470161A7
:1010D0007047416170470AB1016100E041617047AA
:1010E000C16070474FF480320A438261816182613E
:1010F00082698269704702460020434B18684FF6A8
:101100008073184040EA021008433F4B1860704754
:101110003E49C8617047F0B50A460023002400210B
:10112000002500F00046B6F1004F02D1364EF169BD
:1011300001E0354E7168C0F3034583B200F44016F8
:10114000B6F5401F08D121F070612F4E766826F069
:1011500070662D4F7E6012E000F48016B6F5801F99
:1011600006D1032606FA05F4A14341F0706106E0BA
:10117000460D360103FA06F6B14341F0706122B123
:10118000460D360103FA06F6314300F00046B6F18B
:10119000004F02D11C4EF16101E01B4E7160F0BDA9
:1011A00030B500228B071C0F0F2303FA04F2164BF5
:1011B00008338C1053F824309343134C08348D10AB
:1011C00044F8253023468C1053F824308C07240F24
:1011D00000FA04F423430C4C08348D1044F82530F5
:1011E00030BD0A49DC31086070470000000801404A
:1011F000000C0140001001400014014000180140A3
:10120000001C01400020014000000140000020427D
:10121000DF48006840F00100DD490860084640688A
:10122000DC490840DA49486008460068DA49084065
:10123000D74908600846006820F480200860084606
:10124000406820F4FE0048604FF41F00886070473B
:10125000CF49096821F48031CD4A116011460968EF
:1012600021F480211160B0F5803F03D0B0F5802FCC
:101270000ED106E0C649096841F48031C44A1160C4
:1012800007E0C349096841F4A021C14A116000E0A8
:1012900000BF00BF704710B50146002200230020A8
:1012A0004A11012A02D1BA4C236806E0022A02D16F
:1012B000B74C236A01E0B64C636A01F01F020124B7
:1012C00094401C400CB1012000E0002010BD38B556
:1012D000002000900024002500BF3120FFF7DBFF35
:1012E00005460098401C00900098B0F5A06F01D012
:1012F000002DF2D03120FFF7CEFF08B1012400E02D
:101300000024204638BD01460020A14A106820F084
:10131000F80040EAC10010607047A04908607047BB
:10132000024600209A4B586820F47C1042EA0103E0
:101330001843974B586070479849086670470146B4
:101340000020934A506820F0030008435060704723
:101350008F48406800F00C007047014600208C4A1E
:10136000506820F0F00008435060704701460020AC
:10137000874A506820F4E060084350607047014697
:101380000020834A506820F4605040EAC100506059
:10139000704729B17E4A527A02437D4B5A7204E06B
:1013A0007B4A527A82437A4B5A7270477B49D831D2
:1013B0000860704701460020754A506820F440409C
:1013C0000843506070470021714A20321170704A02
:1013D00082F82010012802D004280AD104E001215B
:1013E0006B4A2032117005E00521694A20321170E4
:1013F00000E000BF00BF704769490860704764495A
:10140000096A0143624A11627047654944390860BC
:10141000704730B500210022002400235C4D6D6828
:1014200005F00C0121B1042905D0082923D105E0DC
:101430005C4D056022E05B4D05601FE0544D6D681A
:1014400005F47012524D6D6805F48034022505EBE9
:1014500092421CB9544D554305600BE04C4D6D68EC
:1014600005F400351DB1504D5543056002E04D4D6A
:101470005543056002E04B4D056000BF00BF444D81
:101480006D6805F0F0010909484D6B5C0568DD40A9
:1014900045603F4D6D6805F4E061090A434D6B5CA2
:1014A0004568DD4085603A4D6D6805F46051C90AB4
:1014B0003E4D6B5C4568DD40C560354D6D6805F49B
:1014C0004041890B3A4D6B5CC568B5FBF3F505618E
:1014D00030BD29B12E4A526902432D4B5A6104E0B6
:1014E0002B4A526982432A4B5A61704729B1284AD4
:1014F00092690243264B9A6104E0254A926982432D
:10150000234B9A61704729B1214AD2690243204B8B
:10151000DA6104E01E4AD26982431D4BDA617047EA
:1015200029B11B4AD2680243194BDA6004E0184A19
:10153000D2688243164BDA60704729B1144A1269A7
:101540000243134B1A6104E0114A12698243104BA3
:101550001A61704712494039086070470F49C864E2
:1015600070470B49C87170470948406A40F0807065
:1015700007494862704701460020054A92680A40C0
:101580000AB1012000E000207047014988727047CD
:10159000001002400000FFF8FFFFF6FE000042428C
:1015A0008004424200127A0000093D001E00002023
:1015B0002E00002010B50446FB48844209D10121C9
:1015C0008803FFF7ADFF00214FF48040FFF7A8FF2D
:1015D00032E0F648844209D101214804FFF7ADFF0B
:1015E00000214FF40030FFF7A8FF25E0F0488442C7
:1015F00009D101218804FFF7A0FF00214FF48020CA
:10160000FFF79BFF18E0EB48844209D10121C80491
:10161000FFF793FF00214FF40020FFF78EFF0BE050
:10162000E548844208D101210805FFF786FF002123
:101630004FF48010FFF781FF10BD2DE9F04786B011
:1016400005460E460024A24600BFA1460027B089E9
:1016500000B100BF2F462C8A4CF6FF700440F08882
:1016600004432C82AC894EF6F3100440B0883189D3
:101670000843718908430443AC81AC8A4FF6FF40AC
:101680000440B0890443AC8201A8FFF7C2FEC648FB
:10169000874202D1DDF810A001E0DDF80CA0A88996
:1016A00000F4004040B10AEBCA0000EB0A103168B8
:1016B0004900B0FBF1F807E00AEBCA0000EB0A10A2
:1016C00031688900B0FBF1F86420B8FBF0F0040148
:1016D0002009642101FB1089A88900F4004040B171
:1016E000322000EBC900B0FBF1F000F0070004432A
:1016F00008E0322000EB09106421B0FBF1F000F0AB
:101700000F0004432C8106B0BDE8F0874FF416515A
:10171000016000218180C18001810C214181002173
:101720008181704710B502460020108A4FF2FF03F6
:1017300018400B884C8823438C882343CC88234350
:101740001843108210BD0021018041808180C1803A
:10175000704721B1828942F40052828104E082897B
:101760004DF6FF731A4082817047F0B5034600249E
:1017700000260025002040F66A17B94200D100BFBC
:101780001846C1F3421401F01F06012707FA06F5B7
:10179000012C01D10C3004E0022C01D1103000E00A
:1017A00014301AB107682F43076002E00768AF439F
:1017B0000760F0BD1AB1838A0B43838202E0838AFB
:1017C0008B4383827047028A4FF6F0731A4002827D
:1017D000028A0A430282704782894FF2FF731A40DD
:1017E000828182890A438281704721B1828942F0D5
:1017F0000202828104E082894FF6FD731A408281E1
:101800007047028A4FF6DF731A400282028A0A4347
:101810000282704721B1028A42F48042028204E0CF
:10182000028A4BF6FF731A4002827047C1F3080226
:101830008280704701468888C0F30800704781891C
:1018400041F0010181817047028BD2B20283028B89
:1018500042EA012202837047028B02F47F42028334
:10186000028B0A430283704721B1828A42F0200230
:10187000828204E0828A4FF6DF731A4082827047C8
:1018800021B1828A42F01002828204E0828A4FF6FD
:10189000EF731A408282704721B1828A42F00802B7
:1018A000828204E0828A4FF6F7731A408282704780
:1018B00021B1828942F40042828103E08289C2F32D
:1018C0000E028281704721B1828A42F400628282D4
:1018D00004E0828A4FF2FF731A4082827047828A44
:1018E0004FF6FB731A408282828A0A4382827047D3
:1018F00021B1828A42F00202828204E0828A4FF69B
:10190000FD731A408282704702460020B1F5007FC5
:1019100000D100BF13880B400BB1012000E0002074
:10192000704701F40072B2F5007F00D100BFCA43D6
:101930000280704770B50246002400230025002075
:1019400040F66A16B14200D100BFC1F3421501F062
:101950001F03012606FA03F3012D02D196893340B5
:1019600006E0022D02D1168A334001E0968A334008
:101970000C12012606FA04F41688344013B10CB197
:10198000012000E0002070BD10B50022002340F6C9
:101990006A14A14200D100BF0A1201249440A3B2EC
:1019A000DC43048010BD00000038014000440040CA
:1019B00000480040004C00400050004070470000CC
:1019C0000FB4044910B503AA029800F08FF910BCB7
:1019D0005DF814FB1800002070B5044685690068A6
:1019E000C10601D5302600E02026C00707D070BD13
:1019F000D4E9012130469047206A401C20626D1EC8
:101A0000F6D570BD70B5044685690078C00707D16A
:101A100070BDD4E9012120209047206A401C20623B
:101A20006D1EF6D570BD00002DE9F041064600247C
:101A300010687529314616A510D0AFF30080002834
:101A400002DA404213A507E031688A0701D512A5E2
:101A500002E0490704D511A5012401E0AFF300809D
:101A600000210A2206F1240709E0B0FBF2FCB0FBDA
:101A7000F2F302FB1C00303078541846491C002851
:101A8000F3D123462A463046BDE8F04100F0D4B8F1
:101A9000000000002D0000002B00000020000000CE
:101AA00070B504460D4621461068AFF300802188CA
:101AB000090502D50F4A7A4402E00E4A7A440E32F2
:101AC000002104F1240305E000F00F060009965DF3
:101AD0005E54491C0028F7D120780023000704D564
:101AE000702D02D009B1022311322046BDE87040AA
:101AF00000F0A2B80C0B00002DE9F05F8946044607
:101B00004FF0000ADFF824B1FB44C0F820A02046C3
:101B1000E168884700287DD0252806D0D4E9012136
:101B20009047206A401C2062F1E700255F4620466E
:101B3000E16888472028064607DB312E05D2B81910
:101B400010F8200C08B10543F1E7A80701D525F0EE
:101B50000405C4F81CA00027C4F818A02A2E09D038
:101B6000304600F021F938B304EB8708303EC8F85E
:101B7000186019E059F8041B204604EB87029161B4
:101B8000E1688847012F064618D1E069002820DA6D
:101B900025F020051DE0D8F8180000EB800006EBCA
:101BA00040003038C8F818002046E16888470646EB
:101BB00000F0FAF80028EED1012F0AD02E2E08D11D
:101BC0002046E16888477F1C0646022F45F0200525
:101BD000C4DBA069002803DA404245F00105A0619A
:101BE000E80701D025F01005A6B1A6F1410019289B
:101BF00002D8203645F400654A4631462046256025
:101C00004D46FEF7CFFA60B1012807D0ED1D25F053
:101C1000070000E007E000F1080978E705F1040992
:101C200075E730467AE7206ABDE8F09FE20A0000D7
:101C300070477047704770472DE9F0470D46994649
:101C40009246044600F124080168880604D5E0693C
:101C500021F01001216000E00120A84201DD471BB6
:101C600000E00027A1697A1902EB0900081AA061B7
:101C70002078C00602D42046FFF7AEFE002608E01A
:101C8000D4E901211AF806009047206A401C761C0E
:101C900020624E45F4DB2078C0060AD52046FFF7C7
:101CA0009BFE06E0D4E9012130209047206A401CC9
:101CB0002062381EA7F10107F4DC07E0D4E9012116
:101CC00018F805009047206A401C2062281EA5F1E4
:101CD0000105F3DC2046FFF795FE2078000602D5CB
:101CE0000220BDE8F0870120FBE70000074B70B53C
:101CF0000D467B4400F011F80446284600F020F819
:101D000010B14FF0FF3070BD204670BD69EFFFFF8E
:101D100001694A1C02610878704700B58FB0CDE9AF
:101D200001310021059105497944CDE9031011469F
:101D30006846FFF7E1FE0FB000BD0000E5FFFFFFC2
:101D4000007B00F080007047754600F029F8AE4631
:101D500005006946534620F00700854618B020B5B7
:101D6000FFF728F8BDE820404FF000064FF00007CD
:101D70004FF000084FF0000B21F00701AC46ACE833
:101D8000C009ACE8C009ACE8C009ACE8C0098D46A0
:101D900070470446AFF300802046FEF718FA0000B3
:101DA00000487047FC00002030380A2801D201208A
:101DB000704700207047000021F00042A2F16052FD
:101DC000B2F5801F01F0004328BFD2F17F6C0BD920
:101DD0005FEA001C43EAC20242EB507018BF704732
:101DE00028BF20F001007047B2F5801FBCBF184625
:101DF00070474FEA410C1CF5001F02D2084600F064
:101E0000D5BB70B500F00AFA00000089FFF7F6BFF5
:101E10004FF00040A0F580007047000010B591EA37
:101E2000030F48BF83F0004300F15482841A71EB22
:101E3000030C05D2121943EB0C03001B61EB0C01E0
:101E4000DFF824E14FEA1154A4EB135C1EEA430FC0
:101E500018BF9EEA445F73D023EA0E03DCF1200E24
:101E600021EA045143F4801332D322FA0CFE10EB22
:101E70000E0023FA0CFE41EB0E01CCF1200E03FA0A
:101E80000EFE10EB0E0051F10001B1F5801FCCF1F8
:101E9000200E32D201EB045112FA0EF2BDE81040CE
:101EA00058BF7047401C38BF5FEA420218BF7047F6
:101EB000002814BF20F0010041F100014FEA410366
:101EC00013F5001F38BF7047A1F1C04100F0F4B90D
:101ED000012A43EB0302ACF1200CDCF11F0E32BFF0
:101EE0004FF0000E23FA0CF310EB030041EB04510A
:101EF000B4EB115FD0D0A1EB045101F5801149087A
:101F00005FEA300001EB04510ED350F1000038BFFE
:101F100012FA0EFE08D1BDE81040C9E7401C38BFD8
:101F20005FEA4202CAD1C3E7BDE810404FEA41036D
:101F300013F5001F38BF7047A1F1C04100F0BCB9D4
:101F40009EEA445F08D011EA5E0FBDE8104004BF6E
:101F500001F0004100207047BDE8104070B500F06E
:101F60005DF900BF64FBBE3E0000E0FF2DE9C0410B
:101F700030B4DFF8A0C23CEA111418BF3CEA1314D5
:101F800000F0EC8081EA03051CEA111444EAD574E0
:101F900018BF1CEA131500F0C780A4EB05044FF02E
:101FA000004545EAC12145EAC32341EA505143EACD
:101FB000525304F17F74994204F500344FEAC02073
:101FC0004FEAC22208BF904200F09C804FEA13659E
:101FD0000FF24016765D4FEA134506FB05F7C7F191
:101FE000807706FB07F74FEAD737A7FB03687642EF
:101FF000C8F58038A7FB06CE38BFA8F1010807FB5B
:1020000008E64FF0000EA6FB028CE6FB03CEDCF1E7
:10201000000CCEF1004E38BFAEF1010EA6FB0C58FD
:102020004FF000074FF00005E6FB0E87A1FB08C646
:10203000A0FB07CE16EB0E0645F10005E1FB076598
:1020400015F1E04E7EBFA4F580345FEA46066D418F
:1020500016F1800745F100054FEA17274FEA06669B
:1020600047EA0567A6F1DE46B6F1805F4FEA15251F
:102070001FD9384624F0010C05EBC471BCF1FE6F8A
:1020800001EB0C1102D8F0BCBDE8008124425CBF1A
:1020900001F5801E9EEAC47F02D4F0BCBDE8008139
:1020A000244238D4F0BCA1F1C041BDE8004100F0A9
:1020B00003B94FEAD22242EA43524FEAD323A7FBA5
:1020C00002864FEAD02040EA415007FB03661EEA31
:1020D0000E0F4FEAD12105FB026658BFA6EB005652
:1020E000B6EB00564FEA520E4EEAC37E18EB0E0EC8
:1020F00056EB530EBDD518EB02085E417F1C55F11F
:102100000005B6E74FF480154FF000074FF00006CA
:102110004FF00008ADE7F0BC4FF0000001F1C04106
:1021200001F00041BDE8008111EA0C1F0CEA131513
:1021300000D00CE013EA0C1F00F025804FF00000E7
:10214000F0BC81EA030101F00041BDE80081F0BC70
:10215000BDE8004181EA030100F0AEB8F0BCBDE883
:10216000004170B500F05AF8097EFC3E00F007B857
:1021700081EA03014FF0000001F00041704781EA5D
:10218000030100F099B8F0BCBDE800414FF0000039
:1021900021497047FFFDFBF9F7F5F4F2F0EEEDEBA6
:1021A000E9E8E6E4E3E1E0DEDDDBDAD8D7D5D4D355
:1021B000D1D0CFCDCCCBCAC8C7C6C5C4C2C1C0BFA1
:1021C000BEBDBCBBBAB9B8B7B6B5B4B3B2B1B0AFA7
:1021D000AEADACABAAA9A8A8A7A6A5A4A3A3A2A18B
:1021E000A09F9F9E9D9C9C9B9A9999989797969546
:1021F00095949393929191908F8F8E8E8D8C8C8BE2
:102200008B8A898988888787868585848483838269
:10221000828181800000FF070000F87F0EF1020E2E
:102220002EF0030E5EF8046B364205D4012A43EB10
:10223000030515F5001F12D8012841EB010C1CF510
:10224000001F0CD80ED14FEAD17C15F5001F0CEB06
:102250004C0C0CF1020C08BF4CEBD37C04E04FF0AB
:10226000080C01E04FEAD37C0CEB4C0526FA05F68E
:1022700006F00706B6F1040C06D20EEB860CBDE89C
:1022800070404CF0010C6047DFE80CF0090B0202D3
:102290004FF000414FF00000A1F5002170BD19463C
:1022A0001046012851EB010418BFD4F5001484BF77
:1022B000002001F0004170BD0808A0F500114FEAB0
:1022C0003101704710B591EA030F48BF83F0004316
:1022D0003FF5ACAD841A71EB030C07D212198CF0E8
:1022E000004C43EB0C03001B61EB0C01DFF8A4E195
:1022F0004FEA1154A4EB135C1EEA430F18BF9EEA89
:10230000445F00F0B08023EA6E03524221EA045198
:10231000C3EB6E0338BF5B1EDCF1200E25D322FA1F
:102320000CFE10EB0E0043FA0CFE41EB0E01CCF15B
:10233000200E03FA0EFE10EB0E0051F10001CCF15D
:10234000200E29D412FA0EF201EB0451BDE8104020
:1023500058BF7047401C1CBFB2F1004F70470028A7
:102360000CBF491C20F00100704712EB020E43EB3A
:10237000030218BF4FF0010E4EEA4202ACF1200CEE
:10238000DCF11E0E54D943FA0CFE10EB0E0051F195
:10239000FF31CCF11E0ED5D50EF1010E12FA0EFE54
:1023A000404141EB010101EB445C5FEA5C5C10D908
:1023B00010EBDE7001EB045138BFBEF1004FBDE8F9
:1023C000104018BF704700280CBF491C20F00100C6
:1023D000704730D24FEAD42C11F5001124F4006478
:1023E0001BD0B1FA81F20B3AA41AA41ED2F1200339
:1023F000914030FA03F31943904001EBCC71002C6B
:1024000001EB0451BDE81040A8BF704701F1C04185
:102410004FF0000001F000417047B0FA80F310FA6D
:1024200003F100D110BDE41A173C4805C90AE4E7DE
:1024300001EB045110BD491001EB0451BDE81040FF
:102440004FEA300002E04FF0000170474A0008BF39
:102450000042F8D0B2F5001F28BF704701F00041DC
:102460004FF0000070479EEA445F07D011EA5E0F0C
:10247000BDE8104004BF002100207047BDE81040B7
:1024800070B5FFF7CBFE00BF40DFF63E83F00041A2
:10249000104670470000E0FF43004FEAD30C4FEABC
:1024A0003C0C43401FBF40070CF1605113F0FE4F3E
:1024B00070471CF0006F03D100200CF00041704702
:1024C0000CF0004343EA507010B540EACC0000F035
:1024D00027F800BF000000924FEA0001FFF7ECBEB2
:1024E0004FF000414FF00000A1F5002170470000BF
:1024F00010F0004148BF4042B0FA80F310FA03F2F6
:10250000C3F19D030BD051EAC35101EB12205306D6
:1025100038BF704700F1010008BF20F0010070478C
:102520000EF1020E2EF0030E5EF8044B244204D48A
:102530004FEA4102B2F17F4F11D84FEA4003B3F1A5
:102540007F4F0CD80ED14FEAD07CB2F17F4F0CEB0D
:102550004C0C0CF1020C08BF4CEBD17C04E04FF0AA
:10256000080C01E04FEAD17C0CEB4C0324FA03F495
:1025700004F00704B4F1040C06D20EEB840CBDE8A1
:1025800010404CF0010C6047DFE80CF00708020235
:102590004FF00040A0F5800010BD0846420018BF73
:1025A000D2F1807288BF00F0004010BDFF2141EAE7
:1025B000D050C0057047000001000000000000007E
:1025C00001000000000030313233343536373839FD
:1025D000414243444546403058003031323334356F
:1025E00036373839616263646566403078000400CC
:1025F00000080000000000000002000100001000C0
:102600002026000800000020340000006C010008B3
:1026100054260008340000202C0700008801000820
:1026200000127A0000000000000000000102030414
:10263000060708090000000000000000000000007C
:102640000000010203040102030406070809020452
:042650000608000078
:0400000508000131BD
:00000001FF
